{
    "_format": "hh-sol-artifact-1",
    "contractName": "Web3RSVP",
    "sourceName": "contracts/Web3RSVP.sol",
    "abi": [
        {
            "anonymous": false,
            "inputs": [
                {
                    "indexed": false,
                    "internalType": "bytes32",
                    "name": "eventId",
                    "type": "bytes32"
                },
                {
                    "indexed": false,
                    "internalType": "address",
                    "name": "attendeeAddress",
                    "type": "address"
                }
            ],
            "name": "ConfirmedAttendee",
            "type": "event"
        },
        {
            "anonymous": false,
            "inputs": [
                {
                    "indexed": false,
                    "internalType": "bytes32",
                    "name": "eventId",
                    "type": "bytes32"
                }
            ],
            "name": "DepositsPaidOut",
            "type": "event"
        },
        {
            "anonymous": false,
            "inputs": [
                {
                    "indexed": false,
                    "internalType": "bytes32",
                    "name": "eventId",
                    "type": "bytes32"
                },
                {
                    "indexed": false,
                    "internalType": "address",
                    "name": "creatorAddress",
                    "type": "address"
                },
                {
                    "indexed": false,
                    "internalType": "uint256",
                    "name": "eventTimestamp",
                    "type": "uint256"
                },
                {
                    "indexed": false,
                    "internalType": "uint256",
                    "name": "deposit",
                    "type": "uint256"
                },
                {
                    "indexed": false,
                    "internalType": "uint256",
                    "name": "maxCapacity",
                    "type": "uint256"
                },
                {
                    "indexed": false,
                    "internalType": "string",
                    "name": "eventDataCID",
                    "type": "string"
                }
            ],
            "name": "NewEventCreated",
            "type": "event"
        },
        {
            "anonymous": false,
            "inputs": [
                {
                    "indexed": false,
                    "internalType": "bytes32",
                    "name": "eventId",
                    "type": "bytes32"
                },
                {
                    "indexed": false,
                    "internalType": "address",
                    "name": "attendeeAddress",
                    "type": "address"
                }
            ],
            "name": "NewRSVP",
            "type": "event"
        },
        {
            "inputs": [
                {
                    "internalType": "bytes32",
                    "name": "eventId",
                    "type": "bytes32"
                }
            ],
            "name": "confirmAllAttendee",
            "outputs": [],
            "stateMutability": "nonpayable",
            "type": "function"
        },
        {
            "inputs": [
                {
                    "internalType": "bytes32",
                    "name": "eventId",
                    "type": "bytes32"
                },
                {
                    "internalType": "address",
                    "name": "attendee",
                    "type": "address"
                }
            ],
            "name": "confirmAttendee",
            "outputs": [],
            "stateMutability": "nonpayable",
            "type": "function"
        },
        {
            "inputs": [
                {
                    "internalType": "uint256",
                    "name": "eventTimestamp",
                    "type": "uint256"
                },
                {
                    "internalType": "uint256",
                    "name": "deposit",
                    "type": "uint256"
                },
                {
                    "internalType": "uint256",
                    "name": "maxCapacity",
                    "type": "uint256"
                },
                {
                    "internalType": "string",
                    "name": "eventDataCID",
                    "type": "string"
                }
            ],
            "name": "createNewEvent",
            "outputs": [],
            "stateMutability": "nonpayable",
            "type": "function"
        },
        {
            "inputs": [
                {
                    "internalType": "bytes32",
                    "name": "eventId",
                    "type": "bytes32"
                }
            ],
            "name": "createNewRSVP",
            "outputs": [],
            "stateMutability": "payable",
            "type": "function"
        },
        {
            "inputs": [
                {
                    "internalType": "bytes32",
                    "name": "",
                    "type": "bytes32"
                }
            ],
            "name": "idToEvent",
            "outputs": [
                {
                    "internalType": "bytes32",
                    "name": "eventId",
                    "type": "bytes32"
                },
                {
                    "internalType": "string",
                    "name": "eventDataCID",
                    "type": "string"
                },
                {
                    "internalType": "address",
                    "name": "eventOwner",
                    "type": "address"
                },
                {
                    "internalType": "uint256",
                    "name": "eventTimestamp",
                    "type": "uint256"
                },
                {
                    "internalType": "uint256",
                    "name": "deposit",
                    "type": "uint256"
                },
                {
                    "internalType": "uint256",
                    "name": "maxCapacity",
                    "type": "uint256"
                },
                {
                    "internalType": "bool",
                    "name": "paidOut",
                    "type": "bool"
                }
            ],
            "stateMutability": "view",
            "type": "function"
        },
        {
            "inputs": [
                {
                    "internalType": "bytes32",
                    "name": "eventId",
                    "type": "bytes32"
                }
            ],
            "name": "withdrawUnclaimedDeposit",
            "outputs": [],
            "stateMutability": "nonpayable",
            "type": "function"
        }
    ],
    "bytecode": "0x608060405234801561001057600080fd5b50611eb6806100206000396000f3fe6080604052600436106100545760003560e01c806292098c1461005957806317f0165a1461008257806319b9ac741461009e5780636dcdf2cd146100c7578063909ef021146100f0578063c34a315714610133575b600080fd5b34801561006557600080fd5b50610080600480360381019061007b91906112d9565b61015c565b005b61009c60048036038101906100979190611274565b6103d0565b005b3480156100aa57600080fd5b506100c560048036038101906100c09190611274565b610663565b005b3480156100d357600080fd5b506100ee60048036038101906100e9919061129d565b6107ab565b005b3480156100fc57600080fd5b5061011760048036038101906101129190611274565b610d1c565b60405161012a9796959493929190611735565b60405180910390f35b34801561013f57600080fd5b5061015a60048036038101906101559190611274565b610e13565b005b60003330878787604051602001610177959493929190611613565b604051602081830303815290604052805190602001209050600080600083815260200190815260200160002060030154146101e7576040517f08c379a00000000000000000000000000000000000000000000000000000000081526004016101de906117cb565b60405180910390fd5b60608060405180610120016040528084815260200186868080601f016020809104026020016040519081016040528093929190818152602001838380828437600081840152601f19601f8201169050808301925050505050505081526020013373ffffffffffffffffffffffffffffffffffffffff168152602001898152602001888152602001878152602001838152602001828152602001600015158152506000808581526020019081526020016000206000820151816000015560208201518160010190805190602001906102bf9291906110be565b5060408201518160020160006101000a81548173ffffffffffffffffffffffffffffffffffffffff021916908373ffffffffffffffffffffffffffffffffffffffff160217905550606082015181600301556080820151816004015560a0820151816005015560c0820151816006019080519060200190610341929190611144565b5060e082015181600701908051906020019061035e929190611144565b506101008201518160080160006101000a81548160ff0219169083151502179055509050507f2553138c3f9c9008f266dbdbe9fc64f5b71e098d06ef714a190a65a8b9fc6bf383338a8a8a8a8a6040516103be97969594939291906116cb565b60405180910390a15050505050505050565b600080600083815260200190815260200160002090508060040154341461042c576040517f08c379a00000000000000000000000000000000000000000000000000000000081526004016104239061186b565b60405180910390fd5b8060030154421115610473576040517f08c379a000000000000000000000000000000000000000000000000000000000815260040161046a9061182b565b60405180910390fd5b80600501548160060180549050106104c0576040517f08c379a00000000000000000000000000000000000000000000000000000000081526004016104b79061192b565b60405180910390fd5b60005b81600601805490508160ff1610156105c0573373ffffffffffffffffffffffffffffffffffffffff16826006018260ff168154811061052b577f4e487b7100000000000000000000000000000000000000000000000000000000600052603260045260246000fd5b9060005260206000200160009054906101000a900473ffffffffffffffffffffffffffffffffffffffff1673ffffffffffffffffffffffffffffffffffffffff1614156105ad576040517f08c379a00000000000000000000000000000000000000000000000000000000081526004016105a49061184b565b60405180910390fd5b80806105b890611b29565b9150506104c3565b5080600601339080600181540180825580915050600190039060005260206000200160009091909190916101000a81548173ffffffffffffffffffffffffffffffffffffffff021916908373ffffffffffffffffffffffffffffffffffffffff1602179055507fb79f4240bbdd272d98e02a5db7f0cf156e5fc000961c517670a26eeeec63ed9082336040516106579291906116a2565b60405180910390a15050565b600080600083815260200190815260200160002090508060020160009054906101000a900473ffffffffffffffffffffffffffffffffffffffff1673ffffffffffffffffffffffffffffffffffffffff163373ffffffffffffffffffffffffffffffffffffffff161461070b576040517f08c379a0000000000000000000000000000000000000000000000000000000008152600401610702906118eb565b60405180910390fd5b60005b81600601805490508160ff1610156107a65761079383836006018360ff1681548110610763577f4e487b7100000000000000000000000000000000000000000000000000000000600052603260045260246000fd5b9060005260206000200160009054906101000a900473ffffffffffffffffffffffffffffffffffffffff166107ab565b808061079e90611b29565b91505061070e565b505050565b600080600084815260200190815260200160002090508060020160009054906101000a900473ffffffffffffffffffffffffffffffffffffffff1673ffffffffffffffffffffffffffffffffffffffff163373ffffffffffffffffffffffffffffffffffffffff1614610853576040517f08c379a000000000000000000000000000000000000000000000000000000000815260040161084a906118eb565b60405180910390fd5b600080600090505b82600601805490508160ff16101561098a578373ffffffffffffffffffffffffffffffffffffffff16836006018260ff16815481106108c3577f4e487b7100000000000000000000000000000000000000000000000000000000600052603260045260246000fd5b9060005260206000200160009054906101000a900473ffffffffffffffffffffffffffffffffffffffff1673ffffffffffffffffffffffffffffffffffffffff16141561097757826006018160ff1681548110610949577f4e487b7100000000000000000000000000000000000000000000000000000000600052603260045260246000fd5b9060005260206000200160009054906101000a900473ffffffffffffffffffffffffffffffffffffffff1691505b808061098290611b29565b91505061085b565b508273ffffffffffffffffffffffffffffffffffffffff168173ffffffffffffffffffffffffffffffffffffffff16146109f9576040517f08c379a00000000000000000000000000000000000000000000000000000000081526004016109f0906118ab565b60405180910390fd5b60005b82600701805490508160ff161015610af9578373ffffffffffffffffffffffffffffffffffffffff16836007018260ff1681548110610a64577f4e487b7100000000000000000000000000000000000000000000000000000000600052603260045260246000fd5b9060005260206000200160009054906101000a900473ffffffffffffffffffffffffffffffffffffffff1673ffffffffffffffffffffffffffffffffffffffff161415610ae6576040517f08c379a0000000000000000000000000000000000000000000000000000000008152600401610add906117ab565b60405180910390fd5b8080610af190611b29565b9150506109fc565b50600015158260080160009054906101000a900460ff16151514610b52576040517f08c379a0000000000000000000000000000000000000000000000000000000008152600401610b49906117eb565b60405180910390fd5b81600701839080600181540180825580915050600190039060005260206000200160009091909190916101000a81548173ffffffffffffffffffffffffffffffffffffffff021916908373ffffffffffffffffffffffffffffffffffffffff16021790555060008373ffffffffffffffffffffffffffffffffffffffff168360040154604051610be190611672565b60006040518083038185875af1925050503d8060008114610c1e576040519150601f19603f3d011682016040523d82523d6000602084013e610c23565b606091505b5050905080610c9c5782600701805480610c66577f4e487b7100000000000000000000000000000000000000000000000000000000600052603160045260246000fd5b6001900381819060005260206000200160006101000a81549073ffffffffffffffffffffffffffffffffffffffff021916905590555b80610cdc576040517f08c379a0000000000000000000000000000000000000000000000000000000008152600401610cd39061180b565b60405180910390fd5b7ff8d1583a733d83bdd3ef5464129d0a95a36d62b382d31c6d0467a61f4264381b8585604051610d0d9291906116a2565b60405180910390a15050505050565b6000602052806000526040600020600091509050806000015490806001018054610d4590611af7565b80601f0160208091040260200160405190810160405280929190818152602001828054610d7190611af7565b8015610dbe5780601f10610d9357610100808354040283529160200191610dbe565b820191906000526020600020905b815481529060010190602001808311610da157829003601f168201915b5050505050908060020160009054906101000a900473ffffffffffffffffffffffffffffffffffffffff16908060030154908060040154908060050154908060080160009054906101000a900460ff16905087565b600080600083815260200190815260200160002090508060080160009054906101000a900460ff1615610e7b576040517f08c379a0000000000000000000000000000000000000000000000000000000008152600401610e729061188b565b60405180910390fd5b62093a808160030154610e8e9190611972565b421015610ed0576040517f08c379a0000000000000000000000000000000000000000000000000000000008152600401610ec79061190b565b60405180910390fd5b8060020160009054906101000a900473ffffffffffffffffffffffffffffffffffffffff1673ffffffffffffffffffffffffffffffffffffffff163373ffffffffffffffffffffffffffffffffffffffff1614610f62576040517f08c379a0000000000000000000000000000000000000000000000000000000008152600401610f59906118cb565b60405180910390fd5b600081600701805490508260060180549050610f7e9190611a22565b90506000826004015482610f9291906119c8565b905060018360080160006101000a81548160ff02191690831515021790555060003373ffffffffffffffffffffffffffffffffffffffff1682604051610fd790611672565b60006040518083038185875af1925050503d8060008114611014576040519150601f19603f3d011682016040523d82523d6000602084013e611019565b606091505b50509050806110405760008460080160006101000a81548160ff0219169083151502179055505b80611080576040517f08c379a00000000000000000000000000000000000000000000000000000000081526004016110779061180b565b60405180910390fd5b7f393073ea1365f611c3d2f240c992960d2b99dc81715555d3fc40fc55ba80af9c856040516110af9190611687565b60405180910390a15050505050565b8280546110ca90611af7565b90600052602060002090601f0160209004810192826110ec5760008555611133565b82601f1061110557805160ff1916838001178555611133565b82800160010185558215611133579182015b82811115611132578251825591602001919060010190611117565b5b50905061114091906111ce565b5090565b8280548282559060005260206000209081019282156111bd579160200282015b828111156111bc5782518260006101000a81548173ffffffffffffffffffffffffffffffffffffffff021916908373ffffffffffffffffffffffffffffffffffffffff16021790555091602001919060010190611164565b5b5090506111ca91906111ce565b5090565b5b808211156111e75760008160009055506001016111cf565b5090565b6000813590506111fa81611e3b565b92915050565b60008135905061120f81611e52565b92915050565b60008083601f84011261122757600080fd5b8235905067ffffffffffffffff81111561124057600080fd5b60208301915083600182028301111561125857600080fd5b9250929050565b60008135905061126e81611e69565b92915050565b60006020828403121561128657600080fd5b600061129484828501611200565b91505092915050565b600080604083850312156112b057600080fd5b60006112be85828601611200565b92505060206112cf858286016111eb565b9150509250929050565b6000806000806000608086880312156112f157600080fd5b60006112ff8882890161125f565b95505060206113108882890161125f565b94505060406113218882890161125f565b935050606086013567ffffffffffffffff81111561133e57600080fd5b61134a88828901611215565b92509250509295509295909350565b61136281611a56565b82525050565b61137961137482611a56565b611b53565b82525050565b61138881611a68565b82525050565b61139781611a74565b82525050565b60006113a98385611961565b93506113b6838584611ab5565b6113bf83611bdf565b840190509392505050565b60006113d58261194b565b6113df8185611961565b93506113ef818560208601611ac4565b6113f881611bdf565b840191505092915050565b6000611410600f83611961565b915061141b82611bfd565b602082019050919050565b6000611433601283611961565b915061143e82611c26565b602082019050919050565b6000611456601083611961565b915061146182611c4f565b602082019050919050565b6000611479601483611961565b915061148482611c78565b602082019050919050565b600061149c601083611961565b91506114a782611ca1565b602082019050919050565b60006114bf601183611961565b91506114ca82611cca565b602082019050919050565b60006114e2600a83611961565b91506114ed82611cf3565b602082019050919050565b6000611505600c83611961565b915061151082611d1c565b602082019050919050565b6000611528601283611961565b915061153382611d45565b602082019050919050565b600061154b600083611956565b915061155682611d6e565b600082019050919050565b600061156e601383611961565b915061157982611d71565b602082019050919050565b6000611591600e83611961565b915061159c82611d9a565b602082019050919050565b60006115b4600983611961565b91506115bf82611dc3565b602082019050919050565b60006115d7602783611961565b91506115e282611dec565b604082019050919050565b6115f681611a9e565b82525050565b61160d61160882611a9e565b611b77565b82525050565b600061161f8288611368565b60148201915061162f8287611368565b60148201915061163f82866115fc565b60208201915061164f82856115fc565b60208201915061165f82846115fc565b6020820191508190509695505050505050565b600061167d8261153e565b9150819050919050565b600060208201905061169c600083018461138e565b92915050565b60006040820190506116b7600083018561138e565b6116c46020830184611359565b9392505050565b600060c0820190506116e0600083018a61138e565b6116ed6020830189611359565b6116fa60408301886115ed565b61170760608301876115ed565b61171460808301866115ed565b81810360a083015261172781848661139d565b905098975050505050505050565b600060e08201905061174a600083018a61138e565b818103602083015261175c81896113ca565b905061176b6040830188611359565b61177860608301876115ed565b61178560808301866115ed565b61179260a08301856115ed565b61179f60c083018461137f565b98975050505050505050565b600060208201905081810360008301526117c481611403565b9050919050565b600060208201905081810360008301526117e481611426565b9050919050565b6000602082019050818103600083015261180481611449565b9050919050565b600060208201905081810360008301526118248161146c565b9050919050565b600060208201905081810360008301526118448161148f565b9050919050565b60006020820190508181036000830152611864816114b2565b9050919050565b60006020820190508181036000830152611884816114d5565b9050919050565b600060208201905081810360008301526118a4816114f8565b9050919050565b600060208201905081810360008301526118c48161151b565b9050919050565b600060208201905081810360008301526118e481611561565b9050919050565b6000602082019050818103600083015261190481611584565b9050919050565b60006020820190508181036000830152611924816115a7565b9050919050565b60006020820190508181036000830152611944816115ca565b9050919050565b600081519050919050565b600081905092915050565b600082825260208201905092915050565b600061197d82611a9e565b915061198883611a9e565b9250827fffffffffffffffffffffffffffffffffffffffffffffffffffffffffffffffff038211156119bd576119bc611b81565b5b828201905092915050565b60006119d382611a9e565b91506119de83611a9e565b9250817fffffffffffffffffffffffffffffffffffffffffffffffffffffffffffffffff0483118215151615611a1757611a16611b81565b5b828202905092915050565b6000611a2d82611a9e565b9150611a3883611a9e565b925082821015611a4b57611a4a611b81565b5b828203905092915050565b6000611a6182611a7e565b9050919050565b60008115159050919050565b6000819050919050565b600073ffffffffffffffffffffffffffffffffffffffff82169050919050565b6000819050919050565b600060ff82169050919050565b82818337600083830152505050565b60005b83811015611ae2578082015181840152602081019050611ac7565b83811115611af1576000848401525b50505050565b60006002820490506001821680611b0f57607f821691505b60208210811415611b2357611b22611bb0565b5b50919050565b6000611b3482611aa8565b915060ff821415611b4857611b47611b81565b5b600182019050919050565b6000611b5e82611b65565b9050919050565b6000611b7082611bf0565b9050919050565b6000819050919050565b7f4e487b7100000000000000000000000000000000000000000000000000000000600052601160045260246000fd5b7f4e487b7100000000000000000000000000000000000000000000000000000000600052602260045260246000fd5b6000601f19601f8301169050919050565b60008160601b9050919050565b7f414c524541445920434c41494d45440000000000000000000000000000000000600082015250565b7f414c524541445920524547495354455245440000000000000000000000000000600082015250565b7f414c52454144592050414944204f555400000000000000000000000000000000600082015250565b7f4661696c656420746f2073656e64204574686572000000000000000000000000600082015250565b7f414c52454144592048415050454e454400000000000000000000000000000000600082015250565b7f414c524541445920434f4e4649524d4544000000000000000000000000000000600082015250565b7f4e4f5420454e4f55474800000000000000000000000000000000000000000000600082015250565b7f414c524541445920504149440000000000000000000000000000000000000000600082015250565b7f4e4f205253565020544f20434f4e4649524d0000000000000000000000000000600082015250565b50565b7f4d555354204245204556454e54204f574e455200000000000000000000000000600082015250565b7f4e4f5420415554484f52495a4544000000000000000000000000000000000000600082015250565b7f544f4f204541524c590000000000000000000000000000000000000000000000600082015250565b7f54686973206576656e74206861732072656163686564206d6178696d756e206360008201527f6170616369747900000000000000000000000000000000000000000000000000602082015250565b611e4481611a56565b8114611e4f57600080fd5b50565b611e5b81611a74565b8114611e6657600080fd5b50565b611e7281611a9e565b8114611e7d57600080fd5b5056fea26469706673582212203442ab9b2bd448e22e18366ed475a6eceeebb7537abcb4730fc0d682aa4e85b964736f6c63430008040033",
    "linkReferences": {},
    "deployedLinkReferences": {}
}